:100000000C943E000C9450000C9450000C94500042
:100010000C9450000C9450000C9450000C94500020
:100020000C9450000C9450000C9450000C94500010
:100030000C9450000C9450000C9450000C94500000
:100040000C9450000C9450000C9450000C945000F0
:100050000C9450000C9450000C9450000C945000E0
:100060000C9450000C9450000C9450000C945000D0
:100070000C9450000C9450000C94500011241FBE9E
:10008000CFEFD8E0DEBFCDBF21E0A0E0B1E001C0FE
:100090001D92A230B207E1F70E94CC000C94CF0071
:1000A0000C9400004A9B0BC08FE19EE40197F1F78E
:1000B00000C0000089B182FB882780F9089580E0A4
:1000C000089581E082B9089582E082B9089581E0BF
:1000D00082B98FEC97E00197F1F700C0000082E051
:1000E00082B98FEC97E00197F1F700C00000089506
:1000F00012B808951F920F920FB60F9211248FE538
:100100009AEE0197F1F700C000008091000191E0A4
:1001100089278093000190E080E0C2E0D1E0843044
:10012000910519F18230910599F00097C1F7D2B984
:1001300080910001882331F080910001811105C078
:1001400082E001C080E090E0EACF0E946700F4CF37
:10015000C2B980910001882399F380910001811137
:1001600002C084E0F0CFD2B9F8CF12B8809100017C
:100170008823B9F380910001882321F3C2B9FACF13
:10018000F89483E081B91AB8E89AE9E6F0E0808152
:10019000816080837894089590E080E00895F894D9
:0201A000FFCF8F
:00000001FF
