:100000000C943E000C9448000C9448000C9448005A
:100010000C9448000C9448000C9448000C94480040
:100020000C9448000C9448000C9448000C94480030
:100030000C9448000C9448000C9448000C94480020
:100040000C9448000C9448000C9448000C94480010
:100050000C9448000C9448000C9448000C94480000
:100060000C9448000C9448000C9448000C944800F0
:100070000C9448000C9448000C94480011241FBEB6
:10008000CFEFD8E0DEBFCDBF0E9470000C94B80067
:100090000C940000882339F0559A549810928500EA
:1000A0001092840008958AB180638AB9F7CFF894DA
:1000B00090E0909389008093880070E070938B00AB
:1000C00060938A00E0E8F0E08081816A8083E1E863
:1000D000F0E080818260808310928200789408959D
:1000E00081E00E944A0060E080E00E9457002FEF0C
:1000F00089E698E1215080409040E1F700C000007F
:100100006FE38FE30E9457002FEF89E698E12150BB
:1001100080409040E1F700C000006FE78FE70E9449
:1001200057002FEF89E698E1215080409040E1F799
:1001300000C0000080E00E944A006FEB8FEB0E943D
:1001400057002FEF89E698E1215080409040E1F779
:1001500000C000006EEF8EEF0E9457002FEF89E67F
:1001600098E1215080409040E1F700C00000B8CFF6
:04017000F894FFCF31
:00000001FF
