:100000000C943E000C946A000C9450000C94500028
:100010000C9450000C9450000C9450000C94500020
:100020000C9450000C9450000C9450000C94500010
:100030000C9450000C9450000C9450000C94500000
:100040000C9450000C9450000C9450000C945000F0
:100050000C9450000C9450000C9450000C945000E0
:100060000C9450000C9450000C9450000C945000D0
:100070000C9450000C9450000C94500011241FBE9E
:10008000CFEFD8E0DEBFCDBF21E0A0E0B1E001C0FE
:100090001D92A130B207E1F70E9489000C94AB00D9
:1000A0000C94000082E082B98FE19EE40197F1F7A1
:1000B00000C0000081E082B98FE19EE40197F1F772
:1000C00000C000000895F894E89A81E080936900E8
:1000D000789408951F921FB61F9211248F939F93B7
:1000E0008FE59AEE0197F1F700C0000080910001C2
:1000F000853049F410920001E09A9F918F911F90F2
:100100001FBE1F901895809100018F5F80930001A2
:10011000F3CF8BEF8AB983E081B90E946300DCEFF3
:10012000C2E011E080910001833039F040F4813069
:1001300059F0823061F08111F5CFC2B9F3CF84302C
:1001400041F08530D1F3EECF0E945200EBCF12B9CF
:0A015000E9CFD2B9E7CFF894FFCF52
:00000001FF
