:100000000C943E000C9477000C9450000C9450001B
:100010000C9450000C9450000C9450000C94500020
:100020000C9450000C9450000C9450000C94500010
:100030000C9450000C9471000C9450000C945000DF
:100040000C9450000C9450000C9450000C945000F0
:100050000C9450000C9450000C9450000C945000E0
:100060000C9450000C9450000C9450000C945000D0
:100070000C9450000C9450000C94500011241FBE9E
:10008000CFEFD8E0DEBFCDBF21E0A0E0B1E001C0FE
:100090001D92A230B207E1F70E948A000C94C100C1
:1000A0000C940000F894E89A81E0809369007894B9
:1000B0000895109285001092840090938900809397
:1000C0008800E0E8F0E08081806C8083E1E8F0E087
:1000D0008081856080831092820082E080936F002F
:1000E00008958F9381E0809301018F9118958F93EC
:1000F0008FB78F939F938FE59AEE0197F1F700C02A
:10010000000081E080930001E09A9F918F918FBF62
:100110008F9118958BEF8AB983E081B90E945200C4
:10012000C2E0DCEF2FEF83E294EF2150804090405B
:10013000E1F700C00000C2B92FEF80E792E0215044
:1001400080409040E1F700C00000D2B984E89EE111
:100150000E94590080910001811104C08091010129
:10016000882301F3F89480910001813009F482B969
:1001700080910101813011F482E082B990E080E049
:060180000895F894FFCF82
:00000001FF
